{
  "contractName": "History",
  "abi": [
    {
      "inputs": [],
      "stateMutability": "nonpayable",
      "type": "constructor"
    },
    {
      "inputs": [
        {
          "internalType": "uint256",
          "name": "",
          "type": "uint256"
        }
      ],
      "name": "bloodCenterIdByBloodDonationId",
      "outputs": [
        {
          "internalType": "uint256",
          "name": "",
          "type": "uint256"
        }
      ],
      "stateMutability": "view",
      "type": "function",
      "constant": true
    },
    {
      "inputs": [
        {
          "internalType": "uint256",
          "name": "",
          "type": "uint256"
        }
      ],
      "name": "bloodCenterIdByStockedBloodDonationId",
      "outputs": [
        {
          "internalType": "uint256",
          "name": "",
          "type": "uint256"
        }
      ],
      "stateMutability": "view",
      "type": "function",
      "constant": true
    },
    {
      "inputs": [
        {
          "internalType": "uint256",
          "name": "",
          "type": "uint256"
        }
      ],
      "name": "bloodCenters",
      "outputs": [
        {
          "internalType": "uint256",
          "name": "id",
          "type": "uint256"
        },
        {
          "internalType": "string",
          "name": "name",
          "type": "string"
        },
        {
          "internalType": "uint256",
          "name": "bloodDonationsCount",
          "type": "uint256"
        },
        {
          "internalType": "uint256",
          "name": "bloodDonationsStockCount",
          "type": "uint256"
        }
      ],
      "stateMutability": "view",
      "type": "function",
      "constant": true
    },
    {
      "inputs": [],
      "name": "bloodCentersCount",
      "outputs": [
        {
          "internalType": "uint256",
          "name": "",
          "type": "uint256"
        }
      ],
      "stateMutability": "view",
      "type": "function",
      "constant": true
    },
    {
      "inputs": [
        {
          "internalType": "uint256",
          "name": "",
          "type": "uint256"
        }
      ],
      "name": "bloodDonations",
      "outputs": [
        {
          "internalType": "uint256",
          "name": "id",
          "type": "uint256"
        },
        {
          "components": [
            {
              "internalType": "uint256",
              "name": "day",
              "type": "uint256"
            },
            {
              "internalType": "uint256",
              "name": "month",
              "type": "uint256"
            },
            {
              "internalType": "uint256",
              "name": "year",
              "type": "uint256"
            }
          ],
          "internalType": "struct History.Date",
          "name": "date",
          "type": "tuple"
        },
        {
          "components": [
            {
              "internalType": "uint256",
              "name": "hour",
              "type": "uint256"
            },
            {
              "internalType": "uint256",
              "name": "minute",
              "type": "uint256"
            }
          ],
          "internalType": "struct History.Time",
          "name": "time",
          "type": "tuple"
        },
        {
          "internalType": "uint256",
          "name": "bloodCenterId",
          "type": "uint256"
        },
        {
          "internalType": "bool",
          "name": "isUsed",
          "type": "bool"
        }
      ],
      "stateMutability": "view",
      "type": "function",
      "constant": true
    },
    {
      "inputs": [],
      "name": "bloodDonationsCount",
      "outputs": [
        {
          "internalType": "uint256",
          "name": "",
          "type": "uint256"
        }
      ],
      "stateMutability": "view",
      "type": "function",
      "constant": true
    },
    {
      "inputs": [
        {
          "internalType": "uint256",
          "name": "",
          "type": "uint256"
        }
      ],
      "name": "donationsByBloodCenter",
      "outputs": [
        {
          "internalType": "uint256",
          "name": "",
          "type": "uint256"
        }
      ],
      "stateMutability": "view",
      "type": "function",
      "constant": true
    },
    {
      "inputs": [],
      "name": "livesSaved",
      "outputs": [
        {
          "internalType": "uint256",
          "name": "",
          "type": "uint256"
        }
      ],
      "stateMutability": "view",
      "type": "function",
      "constant": true
    },
    {
      "inputs": [],
      "name": "nextAvailability",
      "outputs": [
        {
          "internalType": "uint256",
          "name": "day",
          "type": "uint256"
        },
        {
          "internalType": "uint256",
          "name": "month",
          "type": "uint256"
        },
        {
          "internalType": "uint256",
          "name": "year",
          "type": "uint256"
        }
      ],
      "stateMutability": "view",
      "type": "function",
      "constant": true
    },
    {
      "inputs": [
        {
          "internalType": "uint256",
          "name": "",
          "type": "uint256"
        }
      ],
      "name": "notifications",
      "outputs": [
        {
          "internalType": "uint256",
          "name": "id",
          "type": "uint256"
        },
        {
          "internalType": "string",
          "name": "message",
          "type": "string"
        },
        {
          "internalType": "bool",
          "name": "read",
          "type": "bool"
        }
      ],
      "stateMutability": "view",
      "type": "function",
      "constant": true
    },
    {
      "inputs": [],
      "name": "notificationsCount",
      "outputs": [
        {
          "internalType": "uint256",
          "name": "",
          "type": "uint256"
        }
      ],
      "stateMutability": "view",
      "type": "function",
      "constant": true
    },
    {
      "inputs": [
        {
          "internalType": "uint256",
          "name": "_id",
          "type": "uint256"
        }
      ],
      "name": "getIsUsed",
      "outputs": [
        {
          "internalType": "bool",
          "name": "isUsed",
          "type": "bool"
        }
      ],
      "stateMutability": "view",
      "type": "function",
      "constant": true
    },
    {
      "inputs": [],
      "name": "getLivesSaved",
      "outputs": [
        {
          "internalType": "uint256",
          "name": "_livesSaved",
          "type": "uint256"
        }
      ],
      "stateMutability": "view",
      "type": "function",
      "constant": true
    },
    {
      "inputs": [],
      "name": "getNotifications",
      "outputs": [
        {
          "components": [
            {
              "internalType": "uint256",
              "name": "id",
              "type": "uint256"
            },
            {
              "internalType": "string",
              "name": "message",
              "type": "string"
            },
            {
              "internalType": "bool",
              "name": "read",
              "type": "bool"
            }
          ],
          "internalType": "struct History.Notification[]",
          "name": "_notifications",
          "type": "tuple[]"
        }
      ],
      "stateMutability": "view",
      "type": "function",
      "constant": true
    },
    {
      "inputs": [],
      "name": "getBloodCenters",
      "outputs": [
        {
          "components": [
            {
              "internalType": "uint256",
              "name": "id",
              "type": "uint256"
            },
            {
              "internalType": "string",
              "name": "name",
              "type": "string"
            },
            {
              "internalType": "uint256",
              "name": "bloodDonationsCount",
              "type": "uint256"
            },
            {
              "internalType": "uint256",
              "name": "bloodDonationsStockCount",
              "type": "uint256"
            }
          ],
          "internalType": "struct History.BloodCenter[]",
          "name": "_bloodCenters",
          "type": "tuple[]"
        }
      ],
      "stateMutability": "view",
      "type": "function",
      "constant": true
    },
    {
      "inputs": [],
      "name": "getAvailability",
      "outputs": [
        {
          "components": [
            {
              "internalType": "uint256",
              "name": "day",
              "type": "uint256"
            },
            {
              "internalType": "uint256",
              "name": "month",
              "type": "uint256"
            },
            {
              "internalType": "uint256",
              "name": "year",
              "type": "uint256"
            }
          ],
          "internalType": "struct History.Date",
          "name": "availability",
          "type": "tuple"
        }
      ],
      "stateMutability": "view",
      "type": "function",
      "constant": true
    },
    {
      "inputs": [],
      "name": "getPreferedPlace",
      "outputs": [
        {
          "components": [
            {
              "internalType": "uint256",
              "name": "id",
              "type": "uint256"
            },
            {
              "internalType": "string",
              "name": "name",
              "type": "string"
            },
            {
              "internalType": "uint256",
              "name": "bloodDonationsCount",
              "type": "uint256"
            },
            {
              "internalType": "uint256",
              "name": "bloodDonationsStockCount",
              "type": "uint256"
            }
          ],
          "internalType": "struct History.BloodCenter",
          "name": "bloodCenter",
          "type": "tuple"
        }
      ],
      "stateMutability": "view",
      "type": "function",
      "constant": true
    },
    {
      "inputs": [],
      "name": "getBloodDonations",
      "outputs": [
        {
          "components": [
            {
              "internalType": "uint256",
              "name": "id",
              "type": "uint256"
            },
            {
              "components": [
                {
                  "internalType": "uint256",
                  "name": "day",
                  "type": "uint256"
                },
                {
                  "internalType": "uint256",
                  "name": "month",
                  "type": "uint256"
                },
                {
                  "internalType": "uint256",
                  "name": "year",
                  "type": "uint256"
                }
              ],
              "internalType": "struct History.Date",
              "name": "date",
              "type": "tuple"
            },
            {
              "components": [
                {
                  "internalType": "uint256",
                  "name": "hour",
                  "type": "uint256"
                },
                {
                  "internalType": "uint256",
                  "name": "minute",
                  "type": "uint256"
                }
              ],
              "internalType": "struct History.Time",
              "name": "time",
              "type": "tuple"
            },
            {
              "internalType": "uint256",
              "name": "bloodCenterId",
              "type": "uint256"
            },
            {
              "internalType": "bool",
              "name": "isUsed",
              "type": "bool"
            }
          ],
          "internalType": "struct History.BloodDonation[]",
          "name": "_bloodDonations",
          "type": "tuple[]"
        }
      ],
      "stateMutability": "view",
      "type": "function",
      "constant": true
    },
    {
      "inputs": [
        {
          "internalType": "uint256",
          "name": "year",
          "type": "uint256"
        }
      ],
      "name": "getBloodDonationsByYear",
      "outputs": [
        {
          "components": [
            {
              "internalType": "uint256",
              "name": "id",
              "type": "uint256"
            },
            {
              "components": [
                {
                  "internalType": "uint256",
                  "name": "day",
                  "type": "uint256"
                },
                {
                  "internalType": "uint256",
                  "name": "month",
                  "type": "uint256"
                },
                {
                  "internalType": "uint256",
                  "name": "year",
                  "type": "uint256"
                }
              ],
              "internalType": "struct History.Date",
              "name": "date",
              "type": "tuple"
            },
            {
              "components": [
                {
                  "internalType": "uint256",
                  "name": "hour",
                  "type": "uint256"
                },
                {
                  "internalType": "uint256",
                  "name": "minute",
                  "type": "uint256"
                }
              ],
              "internalType": "struct History.Time",
              "name": "time",
              "type": "tuple"
            },
            {
              "internalType": "uint256",
              "name": "bloodCenterId",
              "type": "uint256"
            },
            {
              "internalType": "bool",
              "name": "isUsed",
              "type": "bool"
            }
          ],
          "internalType": "struct History.BloodDonation[]",
          "name": "bloodDonationsByYear",
          "type": "tuple[]"
        }
      ],
      "stateMutability": "view",
      "type": "function",
      "constant": true
    },
    {
      "inputs": [
        {
          "internalType": "uint256",
          "name": "bloodCenterId",
          "type": "uint256"
        }
      ],
      "name": "getBloodDonationsByLocation",
      "outputs": [
        {
          "components": [
            {
              "internalType": "uint256",
              "name": "id",
              "type": "uint256"
            },
            {
              "components": [
                {
                  "internalType": "uint256",
                  "name": "day",
                  "type": "uint256"
                },
                {
                  "internalType": "uint256",
                  "name": "month",
                  "type": "uint256"
                },
                {
                  "internalType": "uint256",
                  "name": "year",
                  "type": "uint256"
                }
              ],
              "internalType": "struct History.Date",
              "name": "date",
              "type": "tuple"
            },
            {
              "components": [
                {
                  "internalType": "uint256",
                  "name": "hour",
                  "type": "uint256"
                },
                {
                  "internalType": "uint256",
                  "name": "minute",
                  "type": "uint256"
                }
              ],
              "internalType": "struct History.Time",
              "name": "time",
              "type": "tuple"
            },
            {
              "internalType": "uint256",
              "name": "bloodCenterId",
              "type": "uint256"
            },
            {
              "internalType": "bool",
              "name": "isUsed",
              "type": "bool"
            }
          ],
          "internalType": "struct History.BloodDonation[]",
          "name": "bloodDonationsByLocation",
          "type": "tuple[]"
        }
      ],
      "stateMutability": "view",
      "type": "function",
      "constant": true
    },
    {
      "inputs": [
        {
          "internalType": "string",
          "name": "_name",
          "type": "string"
        }
      ],
      "name": "addBloodCenter",
      "outputs": [],
      "stateMutability": "nonpayable",
      "type": "function"
    },
    {
      "inputs": [
        {
          "internalType": "uint256",
          "name": "day",
          "type": "uint256"
        },
        {
          "internalType": "uint256",
          "name": "month",
          "type": "uint256"
        },
        {
          "internalType": "uint256",
          "name": "year",
          "type": "uint256"
        },
        {
          "internalType": "uint256",
          "name": "hour",
          "type": "uint256"
        },
        {
          "internalType": "uint256",
          "name": "minute",
          "type": "uint256"
        },
        {
          "internalType": "uint256",
          "name": "bloodCenterId",
          "type": "uint256"
        }
      ],
      "name": "addBloodDonation",
      "outputs": [],
      "stateMutability": "nonpayable",
      "type": "function"
    },
    {
      "inputs": [
        {
          "internalType": "string",
          "name": "name",
          "type": "string"
        }
      ],
      "name": "addNotification",
      "outputs": [],
      "stateMutability": "nonpayable",
      "type": "function"
    },
    {
      "inputs": [
        {
          "internalType": "uint256",
          "name": "id",
          "type": "uint256"
        }
      ],
      "name": "readNotification",
      "outputs": [],
      "stateMutability": "nonpayable",
      "type": "function"
    },
    {
      "inputs": [
        {
          "components": [
            {
              "internalType": "uint256",
              "name": "day",
              "type": "uint256"
            },
            {
              "internalType": "uint256",
              "name": "month",
              "type": "uint256"
            },
            {
              "internalType": "uint256",
              "name": "year",
              "type": "uint256"
            }
          ],
          "internalType": "struct History.Date",
          "name": "date",
          "type": "tuple"
        }
      ],
      "name": "changeNextAvailability",
      "outputs": [],
      "stateMutability": "nonpayable",
      "type": "function"
    },
    {
      "inputs": [
        {
          "internalType": "uint256",
          "name": "bloodDonationId",
          "type": "uint256"
        }
      ],
      "name": "useBlood",
      "outputs": [],
      "stateMutability": "nonpayable",
      "type": "function"
    },
    {
      "inputs": [
        {
          "internalType": "string",
          "name": "s1",
          "type": "string"
        },
        {
          "internalType": "string",
          "name": "s2",
          "type": "string"
        }
      ],
      "name": "stringEquals",
      "outputs": [
        {
          "internalType": "bool",
          "name": "",
          "type": "bool"
        }
      ],
      "stateMutability": "pure",
      "type": "function",
      "constant": true
    }
  ],
  "bytecode": "0x608060405260006001556000600355604051806060016040528060018152602001600181526020016107e2815250600760008201518160000155602082015181600101556040820151816002015550506000600a556000600c553480156200006657600080fd5b50620000ad6040518060400160405280600481526020017f4950535400000000000000000000000000000000000000000000000000000000815250620000f960201b60201c565b620000f36040518060400160405280600481526020017f4846444600000000000000000000000000000000000000000000000000000000815250620000f960201b60201c565b6200034e565b60006040518060800160405280600154815260200183815260200160008152602001600081525090508060008060015481526020019081526020016000206000820151816000015560208201518160010190805190602001906200015f929190620001b2565b506040820151816002015560608201518160030155905050600160008154809291906200018c906200029b565b919050555060006006600083600001518152602001908152602001600020819055505050565b828054620001c09062000318565b90600052602060002090601f016020900481019282620001e4576000855562000230565b82601f10620001ff57805160ff191683800117855562000230565b8280016001018555821562000230579182015b828111156200022f57825182559160200191906001019062000212565b5b5090506200023f919062000243565b5090565b5b808211156200025e57600081600090555060010162000244565b5090565b7f4e487b7100000000000000000000000000000000000000000000000000000000600052601160045260246000fd5b6000819050919050565b6000620002a88262000291565b91507fffffffffffffffffffffffffffffffffffffffffffffffffffffffffffffffff821415620002de57620002dd62000262565b5b600182019050919050565b7f4e487b7100000000000000000000000000000000000000000000000000000000600052602260045260246000fd5b600060028204905060018216806200033157607f821691505b60208210811415620003485762000347620002e9565b5b50919050565b612d99806200035e6000396000f3fe608060405234801561001057600080fd5b50600436106101a95760003560e01c806387a8c36e116100f9578063cf48bd2c11610097578063ee25ecd811610071578063ee25ecd8146104dd578063ef6f7ecf1461050d578063f584f50d1461052b578063febc9dec1461055b576101a9565b8063cf48bd2c1461045f578063d613621b1461047d578063e63277b1146104ad576101a9565b80639b60f72f116100d35780639b60f72f146103d7578063a48a2361146103f3578063af72335314610411578063b09686211461042f576101a9565b806387a8c36e146103675780638a4b6beb146103855780638f27ba34146103a3576101a9565b8063428200e8116101665780635df82ef2116101405780635df82ef2146102da5780636ccd4e7f146102f85780637a53e040146103165780637b46989414610334576101a9565b8063428200e81461027057806355dc54091461028e5780635dbb137b146102be576101a9565b80631cd5c2d1146101ae5780631ed003a8146101ca57806321cad4ef146101e657806323c8c3c61461020257806334c1f944146102225780633ad6d05214610254575b600080fd5b6101c860048036038101906101c39190611f19565b61058b565b005b6101e460048036038101906101df919061209b565b6107a5565b005b61020060048036038101906101fb91906120c8565b6108ba565b005b61020a6108ec565b60405161021993929190612104565b60405180910390f35b61023c600480360381019061023791906120c8565b610904565b60405161024b939291906121de565b60405180910390f35b61026e600480360381019061026991906120c8565b6109c3565b005b610278610b71565b604051610285919061221c565b60405180910390f35b6102a860048036038101906102a391906120c8565b610b77565b6040516102b591906123df565b60405180910390f35b6102d860048036038101906102d391906124bb565b610dbf565b005b6102e2610e5d565b6040516102ef919061221c565b60405180910390f35b610300610e67565b60405161030d91906125b1565b60405180910390f35b61031e610fe3565b60405161032b9190612615565b60405180910390f35b61034e600480360381019061034991906120c8565b61101b565b60405161035e9493929190612630565b60405180910390f35b61036f6110d3565b60405161037c91906123df565b60405180910390f35b61038d611235565b60405161039a919061221c565b60405180910390f35b6103bd60048036038101906103b891906120c8565b61123b565b6040516103ce9594939291906126ab565b60405180910390f35b6103f160048036038101906103ec91906124bb565b6112c4565b005b6103fb611379565b6040516104089190612824565b60405180910390f35b6104196114f0565b604051610426919061221c565b60405180910390f35b610449600480360381019061044491906120c8565b6114f6565b6040516104569190612846565b60405180910390f35b610467611523565b6040516104749190612973565b60405180910390f35b610497600480360381019061049291906120c8565b6116b3565b6040516104a4919061221c565b60405180910390f35b6104c760048036038101906104c291906120c8565b6116cb565b6040516104d4919061221c565b60405180910390f35b6104f760048036038101906104f291906120c8565b6116e3565b604051610504919061221c565b60405180910390f35b6105156116fb565b604051610522919061221c565b60405180910390f35b610545600480360381019061054091906120c8565b611701565b60405161055291906123df565b60405180910390f35b61057560048036038101906105709190612995565b611946565b6040516105829190612846565b60405180910390f35b6000604051806060016040528088815260200187815260200186815250905060006040518060a0016040528060035481526020018381526020016040518060400160405280888152602001878152508152602001848152602001600015158152509050806002600083600001518152602001908152602001600020600082015181600001556020820151816001016000820151816000015560208201518160010155604082015181600201555050604082015181600401600082015181600001556020820151816001015550506060820151816006015560808201518160070160006101000a81548160ff021916908315150217905550905050826004600083600001518152602001908152602001600020819055508260056000836000015181526020019081526020016000208190555060008084815260200190815260200160002060020160008154809291906106e390612a3c565b9190505550600080848152602001908152602001600020600301600081548092919061070e90612a3c565b919050555060066000848152602001908152602001600020600081548092919061073790612a3c565b91905055506003600081548092919061074f90612a3c565b91905055506107926040518060400160405280601a81526020017f5468616e6b7320666f7220646f6e6174696e6720626c6f6f6421000000000000815250610dbf565b61079b826107a5565b5050505050505050565b60076002015481604001511015806107c65750600760010154816020015110155b806107da5750600760000154816000015110155b156108b75760088160200151111561085f57604051806060016040528082600001518152602001600c600484602001516108149190612a85565b61081e9190612b0a565b8152602001600183604001516108349190612a85565b81525060076000820151816000015560208201518160010155604082015181600201559050506108b6565b604051806060016040528082600001518152602001600483602001516108859190612a85565b8152602001826040015181525060076000820151816000015560208201518160010155604082015181600201559050505b5b50565b6001600b600083815260200190815260200160002060020160006101000a81548160ff02191690831515021790555050565b60078060000154908060010154908060020154905083565b600b60205280600052604060002060009150905080600001549080600101805461092d90612b6a565b80601f016020809104026020016040519081016040528092919081815260200182805461095990612b6a565b80156109a65780601f1061097b576101008083540402835291602001916109a6565b820191906000526020600020905b81548152906001019060200180831161098957829003601f168201915b5050505050908060020160009054906101000a900460ff16905083565b600060046000838152602001908152602001600020549050600560008381526020019081526020016000206000905560016002600084815260200190815260200160002060070160006101000a81548160ff0219169083151502179055506000808281526020019081526020016000206003016000815480929190610a4790612b9c565b9190505550600a6000815480929190610a5f90612a3c565b91905055506000806000838152602001908152602001600020600301541415610b6d576000610b606000808481526020019081526020016000206001018054610aa790612b6a565b80601f0160208091040260200160405190810160405280929190818152602001828054610ad390612b6a565b8015610b205780601f10610af557610100808354040283529160200191610b20565b820191906000526020600020905b815481529060010190602001808311610b0357829003601f168201915b50505050506040518060400160405280601981526020017f2069732072756e6e696e67206c6f77206f6e20626c6f6f642e000000000000008152506119b2565b9050610b6b81610dbf565b505b5050565b60015481565b6060600060035467ffffffffffffffff811115610b9757610b96611fbc565b5b604051908082528060200260200182016040528015610bd057816020015b610bbd611d69565b815260200190600190039081610bb55790505b5090506000805b600354811015610ce9578460026000838152602001908152602001600020600101600201541415610cd657600260008281526020019081526020016000206040518060a001604052908160008201548152602001600182016040518060600160405290816000820154815260200160018201548152602001600282015481525050815260200160048201604051806040016040529081600082015481526020016001820154815250508152602001600682015481526020016007820160009054906101000a900460ff161515151581525050838381518110610cbc57610cbb612bc6565b5b60200260200101819052508180610cd290612a3c565b9250505b8080610ce190612a3c565b915050610bd7565b5060008167ffffffffffffffff811115610d0657610d05611fbc565b5b604051908082528060200260200182016040528015610d3f57816020015b610d2c611d69565b815260200190600190039081610d245790505b5093506000600183610d519190612bff565b90505b60008112610db657838181518110610d6f57610d6e612bc6565b5b6020026020010151858381518110610d8a57610d89612bc6565b5b60200260200101819052508180610da090612a3c565b9250508080610dae90612c93565b915050610d54565b50505050919050565b60006040518060600160405280600c6000815480929190610ddf90612a3c565b91905055815260200183815260200160001515815250905080600b600083600001518152602001908152602001600020600082015181600001556020820151816001019080519060200190610e35929190611da6565b5060408201518160020160006101000a81548160ff0219169083151502179055509050505050565b6000600a54905090565b610e6f611e2c565b60007fffffffffffffffffffffffffffffffffffffffffffffffffffffffffffffffff905060007fffffffffffffffffffffffffffffffffffffffffffffffffffffffffffffffff905060005b600154811015610f0e578260066000838152602001908152602001600020541315610efb57600660008281526020019081526020016000205492508091505b8080610f0690612a3c565b915050610ebc565b5060008082815260200190815260200160002060405180608001604052908160008201548152602001600182018054610f4690612b6a565b80601f0160208091040260200160405190810160405280929190818152602001828054610f7290612b6a565b8015610fbf5780601f10610f9457610100808354040283529160200191610fbf565b820191906000526020600020905b815481529060010190602001808311610fa257829003601f168201915b50505050508152602001600282015481526020016003820154815250509250505090565b610feb611e54565b60076040518060600160405290816000820154815260200160018201548152602001600282015481525050905090565b600060205280600052604060002060009150905080600001549080600101805461104490612b6a565b80601f016020809104026020016040519081016040528092919081815260200182805461107090612b6a565b80156110bd5780601f10611092576101008083540402835291602001916110bd565b820191906000526020600020905b8154815290600101906020018083116110a057829003601f168201915b5050505050908060020154908060030154905084565b606060035467ffffffffffffffff8111156110f1576110f0611fbc565b5b60405190808252806020026020018201604052801561112a57816020015b611117611d69565b81526020019060019003908161110f5790505b509050600080600160035461113f9190612bff565b90505b6000811261123057600260008281526020019081526020016000206040518060a001604052908160008201548152602001600182016040518060600160405290816000820154815260200160018201548152602001600282015481525050815260200160048201604051806040016040529081600082015481526020016001820154815250508152602001600682015481526020016007820160009054906101000a900460ff16151515158152505083838151811061120457611203612bc6565b5b6020026020010181905250818061121a90612a3c565b925050808061122890612c93565b915050611142565b505090565b600a5481565b6002602052806000526040600020600091509050806000015490806001016040518060600160405290816000820154815260200160018201548152602001600282015481525050908060040160405180604001604052908160008201548152602001600182015481525050908060060154908060070160009054906101000a900460ff16905085565b6000604051806080016040528060015481526020018381526020016000815260200160008152509050806000806001548152602001908152602001600020600082015181600001556020820151816001019080519060200190611328929190611da6565b5060408201518160020155606082015181600301559050506001600081548092919061135390612a3c565b919050555060006006600083600001518152602001908152602001600020819055505050565b606060015467ffffffffffffffff81111561139757611396611fbc565b5b6040519080825280602002602001820160405280156113d057816020015b6113bd611e2c565b8152602001906001900390816113b55790505b5090506000600180546113e39190612cdc565b90505b600081106114ec576000808281526020019081526020016000206040518060800160405290816000820154815260200160018201805461142590612b6a565b80601f016020809104026020016040519081016040528092919081815260200182805461145190612b6a565b801561149e5780601f106114735761010080835404028352916020019161149e565b820191906000526020600020905b81548152906001019060200180831161148157829003601f168201915b50505050508152602001600282015481526020016003820154815250508282815181106114ce576114cd612bc6565b5b602002602001018190525080806114e490612b9c565b9150506113e6565b5090565b60035481565b60006002600083815260200190815260200160002060070160009054906101000a900460ff169050919050565b6060600c5467ffffffffffffffff81111561154157611540611fbc565b5b60405190808252806020026020018201604052801561157a57816020015b611567611e75565b81526020019060019003908161155f5790505b5090506000806001600c5461158f9190612bff565b90505b600081126116ae57600b6000828152602001908152602001600020604051806060016040529081600082015481526020016001820180546115d290612b6a565b80601f01602080910402602001604051908101604052809291908181526020018280546115fe90612b6a565b801561164b5780601f106116205761010080835404028352916020019161164b565b820191906000526020600020905b81548152906001019060200180831161162e57829003601f168201915b505050505081526020016002820160009054906101000a900460ff16151515158152505083838151811061168257611681612bc6565b5b6020026020010181905250818061169890612a3c565b92505080806116a690612c93565b915050611592565b505090565b60056020528060005260406000206000915090505481565b60066020528060005260406000206000915090505481565b60046020528060005260406000206000915090505481565b600c5481565b6060600060035467ffffffffffffffff81111561172157611720611fbc565b5b60405190808252806020026020018201604052801561175a57816020015b611747611d69565b81526020019060019003908161173f5790505b5090506000805b60035481101561187057846002600083815260200190815260200160002060060154141561185d57600260008281526020019081526020016000206040518060a001604052908160008201548152602001600182016040518060600160405290816000820154815260200160018201548152602001600282015481525050815260200160048201604051806040016040529081600082015481526020016001820154815250508152602001600682015481526020016007820160009054906101000a900460ff16151515158152505083838151811061184357611842612bc6565b5b6020026020010181905250818061185990612a3c565b9250505b808061186890612a3c565b915050611761565b5060008167ffffffffffffffff81111561188d5761188c611fbc565b5b6040519080825280602002602001820160405280156118c657816020015b6118b3611d69565b8152602001906001900390816118ab5790505b50935060006001836118d89190612bff565b90505b6000811261193d578381815181106118f6576118f5612bc6565b5b602002602001015185838151811061191157611910612bc6565b5b6020026020010181905250818061192790612a3c565b925050808061193590612c93565b9150506118db565b50505050919050565b6000815183511461195a57600090506119ac565b8160405160200161196b9190612d4c565b60405160208183030381529060405280519060200120836040516020016119929190612d4c565b604051602081830303815290604052805190602001201490505b92915050565b60606119ee83836040518060200160405280600081525060405180602001604052806000815250604051806020016040528060008152506119f6565b905092915050565b606060008690506000869050600086905060008690506000869050600081518351855187518951611a279190612a85565b611a319190612a85565b611a3b9190612a85565b611a459190612a85565b67ffffffffffffffff811115611a5e57611a5d611fbc565b5b6040519080825280601f01601f191660200182016040528015611a905781602001600182028036833780820191505090505b50905060008190506000805b8851811015611b2457888181518110611ab857611ab7612bc6565b5b602001015160f81c60f81b838380611acf90612a3c565b945081518110611ae257611ae1612bc6565b5b60200101907effffffffffffffffffffffffffffffffffffffffffffffffffffffffffffff1916908160001a9053508080611b1c90612a3c565b915050611a9c565b5060005b8751811015611bb057878181518110611b4457611b43612bc6565b5b602001015160f81c60f81b838380611b5b90612a3c565b945081518110611b6e57611b6d612bc6565b5b60200101907effffffffffffffffffffffffffffffffffffffffffffffffffffffffffffff1916908160001a9053508080611ba890612a3c565b915050611b28565b5060005b8651811015611c3c57868181518110611bd057611bcf612bc6565b5b602001015160f81c60f81b838380611be790612a3c565b945081518110611bfa57611bf9612bc6565b5b60200101907effffffffffffffffffffffffffffffffffffffffffffffffffffffffffffff1916908160001a9053508080611c3490612a3c565b915050611bb4565b5060005b8551811015611cc857858181518110611c5c57611c5b612bc6565b5b602001015160f81c60f81b838380611c7390612a3c565b945081518110611c8657611c85612bc6565b5b60200101907effffffffffffffffffffffffffffffffffffffffffffffffffffffffffffff1916908160001a9053508080611cc090612a3c565b915050611c40565b5060005b8451811015611d5457848181518110611ce857611ce7612bc6565b5b602001015160f81c60f81b838380611cff90612a3c565b945081518110611d1257611d11612bc6565b5b60200101907effffffffffffffffffffffffffffffffffffffffffffffffffffffffffffff1916908160001a9053508080611d4c90612a3c565b915050611ccc565b50819850505050505050505095945050505050565b6040518060a0016040528060008152602001611d83611e54565b8152602001611d90611e98565b8152602001600081526020016000151581525090565b828054611db290612b6a565b90600052602060002090601f016020900481019282611dd45760008555611e1b565b82601f10611ded57805160ff1916838001178555611e1b565b82800160010185558215611e1b579182015b82811115611e1a578251825591602001919060010190611dff565b5b509050611e289190611eb2565b5090565b6040518060800160405280600081526020016060815260200160008152602001600081525090565b60405180606001604052806000815260200160008152602001600081525090565b604051806060016040528060008152602001606081526020016000151581525090565b604051806040016040528060008152602001600081525090565b5b80821115611ecb576000816000905550600101611eb3565b5090565b6000604051905090565b600080fd5b600080fd5b6000819050919050565b611ef681611ee3565b8114611f0157600080fd5b50565b600081359050611f1381611eed565b92915050565b60008060008060008060c08789031215611f3657611f35611ed9565b5b6000611f4489828a01611f04565b9650506020611f5589828a01611f04565b9550506040611f6689828a01611f04565b9450506060611f7789828a01611f04565b9350506080611f8889828a01611f04565b92505060a0611f9989828a01611f04565b9150509295509295509295565b600080fd5b6000601f19601f8301169050919050565b7f4e487b7100000000000000000000000000000000000000000000000000000000600052604160045260246000fd5b611ff482611fab565b810181811067ffffffffffffffff8211171561201357612012611fbc565b5b80604052505050565b6000612026611ecf565b90506120328282611feb565b919050565b60006060828403121561204d5761204c611fa6565b5b612057606061201c565b9050600061206784828501611f04565b600083015250602061207b84828501611f04565b602083015250604061208f84828501611f04565b60408301525092915050565b6000606082840312156120b1576120b0611ed9565b5b60006120bf84828501612037565b91505092915050565b6000602082840312156120de576120dd611ed9565b5b60006120ec84828501611f04565b91505092915050565b6120fe81611ee3565b82525050565b600060608201905061211960008301866120f5565b61212660208301856120f5565b61213360408301846120f5565b949350505050565b600081519050919050565b600082825260208201905092915050565b60005b8381101561217557808201518184015260208101905061215a565b83811115612184576000848401525b50505050565b60006121958261213b565b61219f8185612146565b93506121af818560208601612157565b6121b881611fab565b840191505092915050565b60008115159050919050565b6121d8816121c3565b82525050565b60006060820190506121f360008301866120f5565b8181036020830152612205818561218a565b905061221460408301846121cf565b949350505050565b600060208201905061223160008301846120f5565b92915050565b600081519050919050565b600082825260208201905092915050565b6000819050602082019050919050565b61226c81611ee3565b82525050565b6060820160008201516122886000850182612263565b50602082015161229b6020850182612263565b5060408201516122ae6040850182612263565b50505050565b6040820160008201516122ca6000850182612263565b5060208201516122dd6020850182612263565b50505050565b6122ec816121c3565b82525050565b610100820160008201516123096000850182612263565b50602082015161231c6020850182612272565b50604082015161232f60808501826122b4565b50606082015161234260c0850182612263565b50608082015161235560e08501826122e3565b50505050565b600061236783836122f2565b6101008301905092915050565b6000602082019050919050565b600061238c82612237565b6123968185612242565b93506123a183612253565b8060005b838110156123d25781516123b9888261235b565b97506123c483612374565b9250506001810190506123a5565b5085935050505092915050565b600060208201905081810360008301526123f98184612381565b905092915050565b600080fd5b600080fd5b600067ffffffffffffffff82111561242657612425611fbc565b5b61242f82611fab565b9050602081019050919050565b82818337600083830152505050565b600061245e6124598461240b565b61201c565b90508281526020810184848401111561247a57612479612406565b5b61248584828561243c565b509392505050565b600082601f8301126124a2576124a1612401565b5b81356124b284826020860161244b565b91505092915050565b6000602082840312156124d1576124d0611ed9565b5b600082013567ffffffffffffffff8111156124ef576124ee611ede565b5b6124fb8482850161248d565b91505092915050565b600082825260208201905092915050565b60006125208261213b565b61252a8185612504565b935061253a818560208601612157565b61254381611fab565b840191505092915050565b60006080830160008301516125666000860182612263565b506020830151848203602086015261257e8282612515565b91505060408301516125936040860182612263565b5060608301516125a66060860182612263565b508091505092915050565b600060208201905081810360008301526125cb818461254e565b905092915050565b6060820160008201516125e96000850182612263565b5060208201516125fc6020850182612263565b50604082015161260f6040850182612263565b50505050565b600060608201905061262a60008301846125d3565b92915050565b600060808201905061264560008301876120f5565b8181036020830152612657818661218a565b905061266660408301856120f5565b61267360608301846120f5565b95945050505050565b6040820160008201516126926000850182612263565b5060208201516126a56020850182612263565b50505050565b6000610100820190506126c160008301886120f5565b6126ce60208301876125d3565b6126db608083018661267c565b6126e860c08301856120f5565b6126f560e08301846121cf565b9695505050505050565b600081519050919050565b600082825260208201905092915050565b6000819050602082019050919050565b60006080830160008301516127436000860182612263565b506020830151848203602086015261275b8282612515565b91505060408301516127706040860182612263565b5060608301516127836060860182612263565b508091505092915050565b600061279a838361272b565b905092915050565b6000602082019050919050565b60006127ba826126ff565b6127c4818561270a565b9350836020820285016127d68561271b565b8060005b8581101561281257848403895281516127f3858261278e565b94506127fe836127a2565b925060208a019950506001810190506127da565b50829750879550505050505092915050565b6000602082019050818103600083015261283e81846127af565b905092915050565b600060208201905061285b60008301846121cf565b92915050565b600081519050919050565b600082825260208201905092915050565b6000819050602082019050919050565b60006060830160008301516128a56000860182612263565b50602083015184820360208601526128bd8282612515565b91505060408301516128d260408601826122e3565b508091505092915050565b60006128e9838361288d565b905092915050565b6000602082019050919050565b600061290982612861565b612913818561286c565b9350836020820285016129258561287d565b8060005b85811015612961578484038952815161294285826128dd565b945061294d836128f1565b925060208a01995050600181019050612929565b50829750879550505050505092915050565b6000602082019050818103600083015261298d81846128fe565b905092915050565b600080604083850312156129ac576129ab611ed9565b5b600083013567ffffffffffffffff8111156129ca576129c9611ede565b5b6129d68582860161248d565b925050602083013567ffffffffffffffff8111156129f7576129f6611ede565b5b612a038582860161248d565b9150509250929050565b7f4e487b7100000000000000000000000000000000000000000000000000000000600052601160045260246000fd5b6000612a4782611ee3565b91507fffffffffffffffffffffffffffffffffffffffffffffffffffffffffffffffff821415612a7a57612a79612a0d565b5b600182019050919050565b6000612a9082611ee3565b9150612a9b83611ee3565b9250827fffffffffffffffffffffffffffffffffffffffffffffffffffffffffffffffff03821115612ad057612acf612a0d565b5b828201905092915050565b7f4e487b7100000000000000000000000000000000000000000000000000000000600052601260045260246000fd5b6000612b1582611ee3565b9150612b2083611ee3565b925082612b3057612b2f612adb565b5b828206905092915050565b7f4e487b7100000000000000000000000000000000000000000000000000000000600052602260045260246000fd5b60006002820490506001821680612b8257607f821691505b60208210811415612b9657612b95612b3b565b5b50919050565b6000612ba782611ee3565b91506000821415612bbb57612bba612a0d565b5b600182039050919050565b7f4e487b7100000000000000000000000000000000000000000000000000000000600052603260045260246000fd5b6000819050919050565b6000612c0a82612bf5565b9150612c1583612bf5565b9250827f800000000000000000000000000000000000000000000000000000000000000001821260008412151615612c5057612c4f612a0d565b5b827f7fffffffffffffffffffffffffffffffffffffffffffffffffffffffffffffff018213600084121615612c8857612c87612a0d565b5b828203905092915050565b6000612c9e82612bf5565b91507f8000000000000000000000000000000000000000000000000000000000000000821415612cd157612cd0612a0d565b5b600182039050919050565b6000612ce782611ee3565b9150612cf283611ee3565b925082821015612d0557612d04612a0d565b5b828203905092915050565b600081905092915050565b6000612d268261213b565b612d308185612d10565b9350612d40818560208601612157565b80840191505092915050565b6000612d588284612d1b565b91508190509291505056fea264697066735822122043fd59038918fae828fe105a00601da0f2e68694553721bd517b787e32a4642b64736f6c634300080b0033",
  "immutableReferences": {},
  "source": "pragma solidity ^0.8.11;\n\ncontract History {\n\n    struct BloodDonation {\n        uint id;\n        Date date;\n        Time time;\n        uint bloodCenterId;\n        bool isUsed;\n    }\n\n    struct Date {\n        uint day;\n        uint month;\n        uint year;\n    }\n\n    struct Time {\n        uint hour;\n        uint minute;\n    }\n\n    struct Notification {\n        uint id;\n        string message;\n        bool read;\n    }\n\n    struct BloodCenter {\n        uint id;\n        string name;\n        uint bloodDonationsCount;\n        uint bloodDonationsStockCount;\n    }\n\n    mapping(uint => BloodCenter) public bloodCenters;\n    uint public bloodCentersCount = 0;\n\n    mapping(uint => BloodDonation) public bloodDonations;\n    uint public bloodDonationsCount = 0;\n    \n    mapping(uint => uint) public bloodCenterIdByBloodDonationId;\n    mapping(uint => uint) public bloodCenterIdByStockedBloodDonationId;\n\n    mapping(uint => uint) public donationsByBloodCenter;\n\n    Date public nextAvailability = Date(1, 1, 2018);\n\n    uint public livesSaved = 0;\n\n    mapping(uint => Notification) public notifications;\n    uint public notificationsCount = 0;\n\n    constructor() {\n        addBloodCenter(\"IPST\");\n        addBloodCenter(\"HFDF\");\n    }\n\n\n\n    function getIsUsed(uint _id) public view\n    returns(bool isUsed) {\n        isUsed =  (bloodDonations[_id].isUsed);\n    }\n\n    function getLivesSaved() public view\n    returns(uint _livesSaved) {\n        _livesSaved = livesSaved;\n    }\n\n\n    function getNotifications() public view\n    returns(Notification[] memory _notifications) {\n        _notifications = new Notification[](notificationsCount);\n        uint count = 0;\n        for(int i = int((notificationsCount)) - 1; i >= 0; i--) {\n            _notifications[count] = notifications[uint(i)];\n            count++;\n        }\n    }\n\n    function getBloodCenters() public view\n    returns(BloodCenter[] memory _bloodCenters) {\n        _bloodCenters = new BloodCenter[](bloodCentersCount);\n        for(uint i = bloodCentersCount - 1; i >= 0; i--) {\n            _bloodCenters[i] = bloodCenters[i];\n        }\n    }\n\n    function getAvailability() public view\n    returns(Date memory availability) {\n        availability = nextAvailability;\n    }\n\n    function getPreferedPlace() public view\n    returns(BloodCenter memory bloodCenter) {\n        int max = -1;\n        int bloodCenterId = -1;\n        for(uint i = 0; i < bloodCentersCount; i++) {\n            if (int(donationsByBloodCenter[i]) > max) {\n                max = int(donationsByBloodCenter[i]);\n                bloodCenterId = int(i);\n            }\n        }\n        return bloodCenters[uint(bloodCenterId)];\n    }\n\n    function getBloodDonations() public view\n    returns(BloodDonation[] memory _bloodDonations) {\n        _bloodDonations = new BloodDonation[](bloodDonationsCount);\n        uint count = 0;\n        for(int i = int((bloodDonationsCount)) - 1; i >= 0; i--) {\n            _bloodDonations[count] = bloodDonations[uint(i)];\n            count++;\n        }\n    }\n\n    function getBloodDonationsByYear(uint year) public view\n    returns(BloodDonation[] memory bloodDonationsByYear) {\n        BloodDonation[] memory bloodDonationsTmp = new BloodDonation[](bloodDonationsCount);\n        uint count = 0;\n        for(uint i = 0; i < bloodDonationsCount; i++) {\n            if (bloodDonations[i].date.year == year) {\n                bloodDonationsTmp[count] = bloodDonations[i];\n                count++;\n            }\n        }\n\n        uint aux = 0;\n\n        bloodDonationsByYear = new BloodDonation[](count);\n        for (int i = int(count) - 1; i >= 0; i--) {\n            bloodDonationsByYear[aux] = bloodDonationsTmp[uint(i)];\n            aux++;\n        }\n    }\n\n    function getBloodDonationsByLocation(uint bloodCenterId) public view\n    returns(BloodDonation[] memory bloodDonationsByLocation) {\n        BloodDonation[] memory bloodDonationsTmp = new BloodDonation[](bloodDonationsCount);\n        uint count = 0;\n        for(uint i = 0; i < bloodDonationsCount; i++) {\n            if (bloodDonations[i].bloodCenterId == bloodCenterId) {\n                bloodDonationsTmp[count] = bloodDonations[i];\n                count++;\n            }\n        }\n\n        uint aux = 0;\n\n        bloodDonationsByLocation = new BloodDonation[](count);\n        for (int i = int(count) - 1; i >= 0; i--) {\n            bloodDonationsByLocation[aux] = bloodDonationsTmp[uint(i)];\n            aux++;\n        }\n    }\n\n    function addBloodCenter(string memory _name) public {\n        BloodCenter memory bloodCenter = BloodCenter({\n            id: bloodCentersCount,\n            name: _name,\n            bloodDonationsCount: 0,\n            bloodDonationsStockCount: 0\n        });\n        \n        bloodCenters[bloodCentersCount] = bloodCenter;\n        \n        bloodCentersCount++;\n\n        donationsByBloodCenter[bloodCenter.id] = 0;\n    }\n\n    function addBloodDonation(\n        uint day,\n        uint month,\n        uint year,\n        uint hour,\n        uint minute,\n        uint bloodCenterId) public\n    {\n        Date memory date = Date(day, month, year);\n\n        BloodDonation memory bloodDonation = BloodDonation(\n            bloodDonationsCount,\n            date,\n            Time(hour, minute),\n            bloodCenterId,\n            false);\n\n        bloodDonations[bloodDonation.id] = bloodDonation;\n\n        bloodCenterIdByBloodDonationId[bloodDonation.id] = bloodCenterId;\n        bloodCenterIdByStockedBloodDonationId[bloodDonation.id] = bloodCenterId;\n\n        bloodCenters[bloodCenterId].bloodDonationsCount++;\n        bloodCenters[bloodCenterId].bloodDonationsStockCount++;\n        donationsByBloodCenter[bloodCenterId]++;\n        \n        bloodDonationsCount++;\n\n        addNotification(\"Thanks for donating blood!\");\n\n        changeNextAvailability(date);\n    }\n\n    function addNotification(string memory name) public {\n        Notification memory notification = Notification(notificationsCount++, name, false);\n        notifications[notification.id] = notification;\n    }\n\n    function readNotification(uint id) public {\n        notifications[id].read = true;\n    }\n\n    function changeNextAvailability(Date memory date) public {\n        if (date.year >= nextAvailability.year || date.month >= nextAvailability.month || date.day >= nextAvailability.day) {\n            if (date.month > 8) {\n                nextAvailability = Date(date.day, (date.month + 4) % 12, date.year + 1);\n            } else {\n                nextAvailability = Date(date.day, date.month + 4, date.year);\n            }\n        }\n    }\n\n    function useBlood(uint bloodDonationId) public {\n        uint bloodCenterId = bloodCenterIdByBloodDonationId[bloodDonationId];\n        delete bloodCenterIdByStockedBloodDonationId[bloodDonationId];\n\n        bloodDonations[bloodDonationId].isUsed = true;\n\n        bloodCenters[bloodCenterId].bloodDonationsStockCount--;\n        livesSaved++;\n\n        if (bloodCenters[bloodCenterId].bloodDonationsStockCount == 0) {\n            string memory message = strConcat(bloodCenters[bloodCenterId].name, \" is running low on blood.\");\n            addNotification(message);\n        }\n    }\n\n    function stringEquals(string memory s1, string memory s2) public pure\n    returns(bool) {\n        if(bytes(s1).length != bytes(s2).length) {\n            return false;\n        } else {\n            return keccak256(abi.encodePacked(s1)) == keccak256(abi.encodePacked(s2));\n        }\n    }\n\n    function strConcat(string memory _a, string memory _b, string memory _c, string memory _d, string memory _e) internal pure returns (string memory){\n        bytes memory _ba = bytes(_a);\n        bytes memory _bb = bytes(_b);\n        bytes memory _bc = bytes(_c);\n        bytes memory _bd = bytes(_d);\n        bytes memory _be = bytes(_e);\n        string memory abcde = new string(_ba.length + _bb.length + _bc.length + _bd.length + _be.length);\n        bytes memory babcde = bytes(abcde);\n        uint k = 0;\n        for (uint i = 0; i < _ba.length; i++) babcde[k++] = _ba[i];\n        for (uint i = 0; i < _bb.length; i++) babcde[k++] = _bb[i];\n        for (uint i = 0; i < _bc.length; i++) babcde[k++] = _bc[i];\n        for (uint i = 0; i < _bd.length; i++) babcde[k++] = _bd[i];\n        for (uint i = 0; i < _be.length; i++) babcde[k++] = _be[i];\n        return string(babcde);\n    }\n\n    function strConcat(string memory _a, string memory _b, string memory _c, string memory _d) internal pure returns (string memory) {\n        return strConcat(_a, _b, _c, _d, \"\");\n    }\n\n    function strConcat(string memory _a, string memory _b, string memory _c) internal pure returns (string memory) {\n        return strConcat(_a, _b, _c, \"\", \"\");\n    }\n\n    function strConcat(string memory _a, string memory _b) internal pure returns (string memory) {\n        return strConcat(_a, _b, \"\", \"\", \"\");\n    }\n\n}\n",
  "sourcePath": "C:\\Users\\Eduxtek\\Desktop\\IST-LEIC\\Masters\\CCU\\Proj\\contracts\\History.sol",
  "compiler": {
    "name": "solc",
    "version": "0.8.11+commit.d7f03943.Emscripten.clang"
  },
  "schemaVersion": "3.4.4",
  "updatedAt": "2022-02-09T10:45:24.960Z",
  "networkType": "ethereum",
  "devdoc": {
    "kind": "dev",
    "methods": {},
    "version": 1
  },
  "userdoc": {
    "kind": "user",
    "methods": {},
    "version": 1
  }
}