{
  "contractName": "History",
  "abi": [
    {
      "inputs": [],
      "stateMutability": "nonpayable",
      "type": "constructor"
    },
    {
      "inputs": [
        {
          "internalType": "uint256",
          "name": "",
          "type": "uint256"
        }
      ],
      "name": "bloodDonations",
      "outputs": [
        {
          "internalType": "uint256",
          "name": "id",
          "type": "uint256"
        },
        {
          "components": [
            {
              "internalType": "uint256",
              "name": "day",
              "type": "uint256"
            },
            {
              "internalType": "uint256",
              "name": "month",
              "type": "uint256"
            },
            {
              "internalType": "uint256",
              "name": "year",
              "type": "uint256"
            }
          ],
          "internalType": "struct History.Date",
          "name": "date",
          "type": "tuple"
        },
        {
          "components": [
            {
              "internalType": "uint256",
              "name": "hour",
              "type": "uint256"
            },
            {
              "internalType": "uint256",
              "name": "minute",
              "type": "uint256"
            }
          ],
          "internalType": "struct History.Time",
          "name": "time",
          "type": "tuple"
        },
        {
          "internalType": "string",
          "name": "location",
          "type": "string"
        }
      ],
      "stateMutability": "view",
      "type": "function",
      "constant": true
    },
    {
      "inputs": [],
      "name": "bloodDonationsCount",
      "outputs": [
        {
          "internalType": "uint256",
          "name": "",
          "type": "uint256"
        }
      ],
      "stateMutability": "view",
      "type": "function",
      "constant": true
    },
    {
      "inputs": [],
      "name": "livesSaved",
      "outputs": [
        {
          "internalType": "uint256",
          "name": "",
          "type": "uint256"
        }
      ],
      "stateMutability": "view",
      "type": "function",
      "constant": true
    },
    {
      "inputs": [],
      "name": "nextAvailability",
      "outputs": [
        {
          "internalType": "uint256",
          "name": "day",
          "type": "uint256"
        },
        {
          "internalType": "uint256",
          "name": "month",
          "type": "uint256"
        },
        {
          "internalType": "uint256",
          "name": "year",
          "type": "uint256"
        }
      ],
      "stateMutability": "view",
      "type": "function",
      "constant": true
    },
    {
      "inputs": [],
      "name": "getAvailability",
      "outputs": [
        {
          "components": [
            {
              "internalType": "uint256",
              "name": "day",
              "type": "uint256"
            },
            {
              "internalType": "uint256",
              "name": "month",
              "type": "uint256"
            },
            {
              "internalType": "uint256",
              "name": "year",
              "type": "uint256"
            }
          ],
          "internalType": "struct History.Date",
          "name": "availability",
          "type": "tuple"
        }
      ],
      "stateMutability": "view",
      "type": "function",
      "constant": true
    },
    {
      "inputs": [],
      "name": "getBloodDonations",
      "outputs": [
        {
          "components": [
            {
              "internalType": "uint256",
              "name": "id",
              "type": "uint256"
            },
            {
              "components": [
                {
                  "internalType": "uint256",
                  "name": "day",
                  "type": "uint256"
                },
                {
                  "internalType": "uint256",
                  "name": "month",
                  "type": "uint256"
                },
                {
                  "internalType": "uint256",
                  "name": "year",
                  "type": "uint256"
                }
              ],
              "internalType": "struct History.Date",
              "name": "date",
              "type": "tuple"
            },
            {
              "components": [
                {
                  "internalType": "uint256",
                  "name": "hour",
                  "type": "uint256"
                },
                {
                  "internalType": "uint256",
                  "name": "minute",
                  "type": "uint256"
                }
              ],
              "internalType": "struct History.Time",
              "name": "time",
              "type": "tuple"
            },
            {
              "internalType": "string",
              "name": "location",
              "type": "string"
            }
          ],
          "internalType": "struct History.BloodDonation[]",
          "name": "_bloodDonations",
          "type": "tuple[]"
        }
      ],
      "stateMutability": "view",
      "type": "function",
      "constant": true
    },
    {
      "inputs": [
        {
          "internalType": "uint256",
          "name": "year",
          "type": "uint256"
        }
      ],
      "name": "getBloodDonationsByYear",
      "outputs": [
        {
          "components": [
            {
              "internalType": "uint256",
              "name": "id",
              "type": "uint256"
            },
            {
              "components": [
                {
                  "internalType": "uint256",
                  "name": "day",
                  "type": "uint256"
                },
                {
                  "internalType": "uint256",
                  "name": "month",
                  "type": "uint256"
                },
                {
                  "internalType": "uint256",
                  "name": "year",
                  "type": "uint256"
                }
              ],
              "internalType": "struct History.Date",
              "name": "date",
              "type": "tuple"
            },
            {
              "components": [
                {
                  "internalType": "uint256",
                  "name": "hour",
                  "type": "uint256"
                },
                {
                  "internalType": "uint256",
                  "name": "minute",
                  "type": "uint256"
                }
              ],
              "internalType": "struct History.Time",
              "name": "time",
              "type": "tuple"
            },
            {
              "internalType": "string",
              "name": "location",
              "type": "string"
            }
          ],
          "internalType": "struct History.BloodDonation[]",
          "name": "bloodDonationsByYear",
          "type": "tuple[]"
        }
      ],
      "stateMutability": "view",
      "type": "function",
      "constant": true
    },
    {
      "inputs": [
        {
          "internalType": "string",
          "name": "location",
          "type": "string"
        }
      ],
      "name": "getBloodDonationsByLocation",
      "outputs": [
        {
          "components": [
            {
              "internalType": "uint256",
              "name": "id",
              "type": "uint256"
            },
            {
              "components": [
                {
                  "internalType": "uint256",
                  "name": "day",
                  "type": "uint256"
                },
                {
                  "internalType": "uint256",
                  "name": "month",
                  "type": "uint256"
                },
                {
                  "internalType": "uint256",
                  "name": "year",
                  "type": "uint256"
                }
              ],
              "internalType": "struct History.Date",
              "name": "date",
              "type": "tuple"
            },
            {
              "components": [
                {
                  "internalType": "uint256",
                  "name": "hour",
                  "type": "uint256"
                },
                {
                  "internalType": "uint256",
                  "name": "minute",
                  "type": "uint256"
                }
              ],
              "internalType": "struct History.Time",
              "name": "time",
              "type": "tuple"
            },
            {
              "internalType": "string",
              "name": "location",
              "type": "string"
            }
          ],
          "internalType": "struct History.BloodDonation[]",
          "name": "bloodDonationsByLocation",
          "type": "tuple[]"
        }
      ],
      "stateMutability": "view",
      "type": "function",
      "constant": true
    },
    {
      "inputs": [
        {
          "internalType": "uint256",
          "name": "day",
          "type": "uint256"
        },
        {
          "internalType": "uint256",
          "name": "month",
          "type": "uint256"
        },
        {
          "internalType": "uint256",
          "name": "year",
          "type": "uint256"
        },
        {
          "internalType": "uint256",
          "name": "hour",
          "type": "uint256"
        },
        {
          "internalType": "uint256",
          "name": "minute",
          "type": "uint256"
        },
        {
          "internalType": "string",
          "name": "location",
          "type": "string"
        }
      ],
      "name": "addBloodDonation",
      "outputs": [],
      "stateMutability": "nonpayable",
      "type": "function"
    },
    {
      "inputs": [
        {
          "components": [
            {
              "internalType": "uint256",
              "name": "day",
              "type": "uint256"
            },
            {
              "internalType": "uint256",
              "name": "month",
              "type": "uint256"
            },
            {
              "internalType": "uint256",
              "name": "year",
              "type": "uint256"
            }
          ],
          "internalType": "struct History.Date",
          "name": "date",
          "type": "tuple"
        }
      ],
      "name": "changeNextAvailability",
      "outputs": [],
      "stateMutability": "nonpayable",
      "type": "function"
    },
    {
      "inputs": [
        {
          "components": [
            {
              "internalType": "uint256",
              "name": "day",
              "type": "uint256"
            },
            {
              "internalType": "uint256",
              "name": "month",
              "type": "uint256"
            },
            {
              "internalType": "uint256",
              "name": "year",
              "type": "uint256"
            }
          ],
          "internalType": "struct History.Date",
          "name": "date1",
          "type": "tuple"
        },
        {
          "components": [
            {
              "internalType": "uint256",
              "name": "day",
              "type": "uint256"
            },
            {
              "internalType": "uint256",
              "name": "month",
              "type": "uint256"
            },
            {
              "internalType": "uint256",
              "name": "year",
              "type": "uint256"
            }
          ],
          "internalType": "struct History.Date",
          "name": "date2",
          "type": "tuple"
        }
      ],
      "name": "dateisAfter",
      "outputs": [
        {
          "internalType": "bool",
          "name": "isAfter",
          "type": "bool"
        }
      ],
      "stateMutability": "pure",
      "type": "function",
      "constant": true
    },
    {
      "inputs": [],
      "name": "incrementLivesSaved",
      "outputs": [],
      "stateMutability": "nonpayable",
      "type": "function"
    },
    {
      "inputs": [
        {
          "internalType": "string",
          "name": "s1",
          "type": "string"
        },
        {
          "internalType": "string",
          "name": "s2",
          "type": "string"
        }
      ],
      "name": "stringEquals",
      "outputs": [
        {
          "internalType": "bool",
          "name": "",
          "type": "bool"
        }
      ],
      "stateMutability": "pure",
      "type": "function",
      "constant": true
    }
  ],
  "bytecode": "0x60806040526000600155604051806060016040528060018152602001600181526020016107e681525060026000820151816000015560208201518160010155604082015181600201555050600060055534801561005b57600080fd5b506119a08061006b6000396000f3fe608060405234801561001057600080fd5b50600436106100cf5760003560e01c80638a4b6beb1161008c578063e4cc8b3511610066578063e4cc8b35146101f5578063eb56fa5c14610211578063f8935eb814610241578063febc9dec14610271576100cf565b80638a4b6beb146101865780638f27ba34146101a4578063af723353146101d7576100cf565b80630873c6c5146100d45780631ed003a8146100de57806323c8c3c6146100fa57806355dc54091461011a5780637a53e0401461014a57806387a8c36e14610168575b600080fd5b6100dc6102a1565b005b6100f860048036038101906100f39190611093565b6102bb565b005b6101026103cf565b604051610111939291906110cf565b60405180910390f35b610134600480360381019061012f9190611106565b6103e7565b6040516101419190611360565b60405180910390f35b61015261067e565b60405161015f91906113c4565b60405180910390f35b6101706106b6565b60405161017d9190611360565b60405180910390f35b61018e610865565b60405161019b91906113df565b60405180910390f35b6101be60048036038101906101b99190611106565b61086b565b6040516101ce9493929190611473565b60405180910390f35b6101df610969565b6040516101ec91906113df565b60405180910390f35b61020f600480360381019061020a9190611579565b61096f565b005b61022b60048036038101906102269190611622565b610a77565b6040516102389190611360565b60405180910390f35b61025b6004803603810190610256919061166b565b610d9a565b60405161026891906116c6565b60405180910390f35b61028b600480360381019061028691906116e1565b610dd6565b60405161029891906116c6565b60405180910390f35b600560008154809291906102b490611788565b9190505550565b6102ef8160026040518060600160405290816000820154815260200160018201548152602001600282015481525050610d9a565b156103cc5760088160200151111561037457604051806060016040528082600001518152602001600c6004846020015161032991906117d1565b6103339190611856565b81526020016001836040015161034991906117d1565b81525060026000820151816000015560208201518160010155604082015181600201559050506103cb565b6040518060600160405280826000015181526020016004836020015161039a91906117d1565b8152602001826040015181525060026000820151816000015560208201518160010155604082015181600201559050505b5b50565b60028060000154908060010154908060020154905083565b6060600060015467ffffffffffffffff81111561040757610406610f7e565b5b60405190808252806020026020018201604052801561044057816020015b61042d610e42565b8152602001906001900390816104255790505b509050600080600090505b6001548110156105c857846000808381526020019081526020016000206001016002015414156105b55760008082815260200190815260200160002060405180608001604052908160008201548152602001600182016040518060600160405290816000820154815260200160018201548152602001600282015481525050815260200160048201604051806040016040529081600082015481526020016001820154815250508152602001600682018054610506906118b6565b80601f0160208091040260200160405190810160405280929190818152602001828054610532906118b6565b801561057f5780601f106105545761010080835404028352916020019161057f565b820191906000526020600020905b81548152906001019060200180831161056257829003601f168201915b50505050508152505083838151811061059b5761059a6118e8565b5b602002602001018190525081806105b190611788565b9250505b80806105c090611788565b91505061044b565b508067ffffffffffffffff8111156105e3576105e2610f7e565b5b60405190808252806020026020018201604052801561061c57816020015b610609610e42565b8152602001906001900390816106015790505b50925060005b818110156106765782818151811061063d5761063c6118e8565b5b6020026020010151848281518110610658576106576118e8565b5b6020026020010181905250808061066e90611788565b915050610622565b505050919050565b610686610e76565b60026040518060600160405290816000820154815260200160018201548152602001600282015481525050905090565b606060015467ffffffffffffffff8111156106d4576106d3610f7e565b5b60405190808252806020026020018201604052801561070d57816020015b6106fa610e42565b8152602001906001900390816106f25790505b50905060005b60015481101561086157600080828152602001908152602001600020604051806080016040529081600082015481526020016001820160405180606001604052908160008201548152602001600182015481526020016002820154815250508152602001600482016040518060400160405290816000820154815260200160018201548152505081526020016006820180546107ae906118b6565b80601f01602080910402602001604051908101604052809291908181526020018280546107da906118b6565b80156108275780601f106107fc57610100808354040283529160200191610827565b820191906000526020600020905b81548152906001019060200180831161080a57829003601f168201915b505050505081525050828281518110610843576108426118e8565b5b6020026020010181905250808061085990611788565b915050610713565b5090565b60055481565b6000602052806000526040600020600091509050806000015490806001016040518060600160405290816000820154815260200160018201548152602001600282015481525050908060040160405180604001604052908160008201548152602001600182015481525050908060060180546108e6906118b6565b80601f0160208091040260200160405190810160405280929190818152602001828054610912906118b6565b801561095f5780601f106109345761010080835404028352916020019161095f565b820191906000526020600020905b81548152906001019060200180831161094257829003601f168201915b5050505050905084565b60015481565b60006040518060600160405280888152602001878152602001868152509050600060405180608001604052806001548152602001838152602001604051806040016040528088815260200187815250815260200184815250905080600080600160008154809291906109e090611788565b919050558152602001908152602001600020600082015181600001556020820151816001016000820151816000015560208201518160010155604082015181600201555050604082015181600401600082015181600001556020820151816001015550506060820151816006019080519060200190610a60929190610e97565b50905050610a6d826102bb565b5050505050505050565b6060600060015467ffffffffffffffff811115610a9757610a96610f7e565b5b604051908082528060200260200182016040528015610ad057816020015b610abd610e42565b815260200190600190039081610ab55790505b509050600080600090505b600154811015610ce457610b8c6000808381526020019081526020016000206006018054610b08906118b6565b80601f0160208091040260200160405190810160405280929190818152602001828054610b34906118b6565b8015610b815780601f10610b5657610100808354040283529160200191610b81565b820191906000526020600020905b815481529060010190602001808311610b6457829003601f168201915b505050505086610dd6565b15610cd15760008082815260200190815260200160002060405180608001604052908160008201548152602001600182016040518060600160405290816000820154815260200160018201548152602001600282015481525050815260200160048201604051806040016040529081600082015481526020016001820154815250508152602001600682018054610c22906118b6565b80601f0160208091040260200160405190810160405280929190818152602001828054610c4e906118b6565b8015610c9b5780601f10610c7057610100808354040283529160200191610c9b565b820191906000526020600020905b815481529060010190602001808311610c7e57829003601f168201915b505050505081525050838381518110610cb757610cb66118e8565b5b60200260200101819052508180610ccd90611788565b9250505b8080610cdc90611788565b915050610adb565b508067ffffffffffffffff811115610cff57610cfe610f7e565b5b604051908082528060200260200182016040528015610d3857816020015b610d25610e42565b815260200190600190039081610d1d5790505b50925060005b81811015610d9257828181518110610d5957610d586118e8565b5b6020026020010151848281518110610d7457610d736118e8565b5b60200260200101819052508080610d8a90611788565b915050610d3e565b505050919050565b600081604001518360400151101580610dbb57508160200151836020015110155b80610dce57508160000151836000015110155b905092915050565b60008151835114610dea5760009050610e3c565b81604051602001610dfb9190611953565b6040516020818303038152906040528051906020012083604051602001610e229190611953565b604051602081830303815290604052805190602001201490505b92915050565b604051806080016040528060008152602001610e5c610e76565b8152602001610e69610f1d565b8152602001606081525090565b60405180606001604052806000815260200160008152602001600081525090565b828054610ea3906118b6565b90600052602060002090601f016020900481019282610ec55760008555610f0c565b82601f10610ede57805160ff1916838001178555610f0c565b82800160010185558215610f0c579182015b82811115610f0b578251825591602001919060010190610ef0565b5b509050610f199190610f37565b5090565b604051806040016040528060008152602001600081525090565b5b80821115610f50576000816000905550600101610f38565b5090565b6000604051905090565b600080fd5b600080fd5b600080fd5b6000601f19601f8301169050919050565b7f4e487b7100000000000000000000000000000000000000000000000000000000600052604160045260246000fd5b610fb682610f6d565b810181811067ffffffffffffffff82111715610fd557610fd4610f7e565b5b80604052505050565b6000610fe8610f54565b9050610ff48282610fad565b919050565b6000819050919050565b61100c81610ff9565b811461101757600080fd5b50565b60008135905061102981611003565b92915050565b60006060828403121561104557611044610f68565b5b61104f6060610fde565b9050600061105f8482850161101a565b60008301525060206110738482850161101a565b60208301525060406110878482850161101a565b60408301525092915050565b6000606082840312156110a9576110a8610f5e565b5b60006110b78482850161102f565b91505092915050565b6110c981610ff9565b82525050565b60006060820190506110e460008301866110c0565b6110f160208301856110c0565b6110fe60408301846110c0565b949350505050565b60006020828403121561111c5761111b610f5e565b5b600061112a8482850161101a565b91505092915050565b600081519050919050565b600082825260208201905092915050565b6000819050602082019050919050565b61116881610ff9565b82525050565b606082016000820151611184600085018261115f565b506020820151611197602085018261115f565b5060408201516111aa604085018261115f565b50505050565b6040820160008201516111c6600085018261115f565b5060208201516111d9602085018261115f565b50505050565b600081519050919050565b600082825260208201905092915050565b60005b838110156112195780820151818401526020810190506111fe565b83811115611228576000848401525b50505050565b6000611239826111df565b61124381856111ea565b93506112538185602086016111fb565b61125c81610f6d565b840191505092915050565b600060e08301600083015161127f600086018261115f565b506020830151611292602086018261116e565b5060408301516112a560808601826111b0565b50606083015184820360c08601526112bd828261122e565b9150508091505092915050565b60006112d68383611267565b905092915050565b6000602082019050919050565b60006112f682611133565b611300818561113e565b9350836020820285016113128561114f565b8060005b8581101561134e578484038952815161132f85826112ca565b945061133a836112de565b925060208a01995050600181019050611316565b50829750879550505050505092915050565b6000602082019050818103600083015261137a81846112eb565b905092915050565b606082016000820151611398600085018261115f565b5060208201516113ab602085018261115f565b5060408201516113be604085018261115f565b50505050565b60006060820190506113d96000830184611382565b92915050565b60006020820190506113f460008301846110c0565b92915050565b604082016000820151611410600085018261115f565b506020820151611423602085018261115f565b50505050565b600082825260208201905092915050565b6000611445826111df565b61144f8185611429565b935061145f8185602086016111fb565b61146881610f6d565b840191505092915050565b600060e08201905061148860008301876110c0565b6114956020830186611382565b6114a260808301856113fa565b81810360c08301526114b4818461143a565b905095945050505050565b600080fd5b600080fd5b600067ffffffffffffffff8211156114e4576114e3610f7e565b5b6114ed82610f6d565b9050602081019050919050565b82818337600083830152505050565b600061151c611517846114c9565b610fde565b905082815260208101848484011115611538576115376114c4565b5b6115438482856114fa565b509392505050565b600082601f8301126115605761155f6114bf565b5b8135611570848260208601611509565b91505092915050565b60008060008060008060c0878903121561159657611595610f5e565b5b60006115a489828a0161101a565b96505060206115b589828a0161101a565b95505060406115c689828a0161101a565b94505060606115d789828a0161101a565b93505060806115e889828a0161101a565b92505060a087013567ffffffffffffffff81111561160957611608610f63565b5b61161589828a0161154b565b9150509295509295509295565b60006020828403121561163857611637610f5e565b5b600082013567ffffffffffffffff81111561165657611655610f63565b5b6116628482850161154b565b91505092915050565b60008060c0838503121561168257611681610f5e565b5b60006116908582860161102f565b92505060606116a18582860161102f565b9150509250929050565b60008115159050919050565b6116c0816116ab565b82525050565b60006020820190506116db60008301846116b7565b92915050565b600080604083850312156116f8576116f7610f5e565b5b600083013567ffffffffffffffff81111561171657611715610f63565b5b6117228582860161154b565b925050602083013567ffffffffffffffff81111561174357611742610f63565b5b61174f8582860161154b565b9150509250929050565b7f4e487b7100000000000000000000000000000000000000000000000000000000600052601160045260246000fd5b600061179382610ff9565b91507fffffffffffffffffffffffffffffffffffffffffffffffffffffffffffffffff8214156117c6576117c5611759565b5b600182019050919050565b60006117dc82610ff9565b91506117e783610ff9565b9250827fffffffffffffffffffffffffffffffffffffffffffffffffffffffffffffffff0382111561181c5761181b611759565b5b828201905092915050565b7f4e487b7100000000000000000000000000000000000000000000000000000000600052601260045260246000fd5b600061186182610ff9565b915061186c83610ff9565b92508261187c5761187b611827565b5b828206905092915050565b7f4e487b7100000000000000000000000000000000000000000000000000000000600052602260045260246000fd5b600060028204905060018216806118ce57607f821691505b602082108114156118e2576118e1611887565b5b50919050565b7f4e487b7100000000000000000000000000000000000000000000000000000000600052603260045260246000fd5b600081905092915050565b600061192d826111df565b6119378185611917565b93506119478185602086016111fb565b80840191505092915050565b600061195f8284611922565b91508190509291505056fea26469706673582212200ad25e61cab317c6a8c2c47f4346d95acc83f67845220d4ddfa1fc8cd473b36264736f6c634300080b0033",
  "immutableReferences": {},
  "source": "pragma solidity ^0.8.11;\n\ncontract History {\n\n    struct BloodDonation {\n        uint id;\n        Date date;\n        Time time;\n        string location;\n    }\n\n    struct Date {\n        uint day;\n        uint month;\n        uint year;\n    }\n\n    struct Time {\n        uint hour;\n        uint minute;\n    }\n\n    mapping(uint => BloodDonation) public bloodDonations;\n    uint public bloodDonationsCount = 0;\n\n    Date public nextAvailability= Date(1, 1, 2022);\n\n    uint public livesSaved = 0;\n\n    constructor() {}\n\n    function getAvailability()public view\n    returns(Date memory availability) {\n        availability = nextAvailability;\n    }\n\n    function getBloodDonations()public view\n    returns(BloodDonation[] memory _bloodDonations) {\n        _bloodDonations = new BloodDonation[](bloodDonationsCount);\n        for(uint i = 0; i < bloodDonationsCount; i++) {\n            _bloodDonations[i] = bloodDonations[i];\n        }\n    }\n\n    function getBloodDonationsByYear(uint year)public view\n    returns(BloodDonation[] memory bloodDonationsByYear) {\n        BloodDonation[] memory bloodDonationsTmp = new BloodDonation[](bloodDonationsCount);\n        uint count;\n        for(uint i = 0; i < bloodDonationsCount; i++) {\n            if (bloodDonations[i].date.year == year) {\n                bloodDonationsTmp[count] = bloodDonations[i];\n                count++;\n            }\n        }\n        bloodDonationsByYear = new BloodDonation[](count);\n        for (uint i = 0; i < count; i++) {\n            bloodDonationsByYear[i] = bloodDonationsTmp[i];\n        }\n    }\n\n    function getBloodDonationsByLocation(string memory location)public view\n    returns(BloodDonation[] memory bloodDonationsByLocation) {\n        BloodDonation[] memory bloodDonationsTmp = new BloodDonation[](bloodDonationsCount);\n        uint count;\n        for(uint i = 0; i < bloodDonationsCount; i++) {\n            if (stringEquals(bloodDonations[i].location, location)) {\n                bloodDonationsTmp[count] = bloodDonations[i];\n                count++;\n            }\n        }\n        bloodDonationsByLocation = new BloodDonation[](count);\n        for (uint i = 0; i < count; i++) {\n            bloodDonationsByLocation[i] = bloodDonationsTmp[i];\n        }\n    }\n\n    function addBloodDonation(\n        uint day,\n        uint month,\n        uint year,\n        uint hour,\n        uint minute,\n        string memory location) public\n    {\n        Date memory date = Date(day, month, year);\n        BloodDonation memory bloodDonation =  BloodDonation(\n            bloodDonationsCount,\n            date,\n            Time(hour, minute),\n            location);\n        bloodDonations[bloodDonationsCount++] = bloodDonation;\n        changeNextAvailability(date);\n    }\n\n    function changeNextAvailability(Date memory date) public {\n        if (dateisAfter(date, nextAvailability)) {\n            if (date.month > 8) {\n                nextAvailability = Date(date.day, (date.month + 4) % 12, date.year + 1);\n            } else {\n                nextAvailability = Date(date.day, date.month + 4, date.year);\n            }\n        }\n    }\n\n    function dateisAfter(Date memory date1, Date memory date2) public pure\n    returns(bool isAfter) {\n        return date1.year >= date2.year || date1.month >= date2.month || date1.day >= date2.day;\n    }\n\n    function incrementLivesSaved() public{\n        livesSaved++;\n    }\n\n    function stringEquals(string memory s1, string memory s2) public pure\n    returns(bool) {\n        if(bytes(s1).length != bytes(s2).length) {\n            return false;\n        } else {\n            return keccak256(abi.encodePacked(s1)) == keccak256(abi.encodePacked(s2));\n    }\n    }\n\n}\n",
  "sourcePath": "C:\\Users\\Eduxtek\\Desktop\\IST-LEIC\\Masters\\CCU\\Proj\\contracts\\History.sol",
  "compiler": {
    "name": "solc",
    "version": "0.8.11+commit.d7f03943.Emscripten.clang"
  },
  "schemaVersion": "3.4.4",
  "updatedAt": "2022-02-01T11:50:10.918Z",
  "networkType": "ethereum",
  "devdoc": {
    "kind": "dev",
    "methods": {},
    "version": 1
  },
  "userdoc": {
    "kind": "user",
    "methods": {},
    "version": 1
  }
}