{
  "contractName": "History",
  "abi": [
    {
      "inputs": [],
      "stateMutability": "nonpayable",
      "type": "constructor"
    },
    {
      "inputs": [
        {
          "internalType": "uint256",
          "name": "",
          "type": "uint256"
        }
      ],
      "name": "bloodDonations",
      "outputs": [
        {
          "internalType": "uint256",
          "name": "id",
          "type": "uint256"
        },
        {
          "components": [
            {
              "internalType": "uint256",
              "name": "day",
              "type": "uint256"
            },
            {
              "internalType": "uint256",
              "name": "month",
              "type": "uint256"
            },
            {
              "internalType": "uint256",
              "name": "year",
              "type": "uint256"
            }
          ],
          "internalType": "struct History.Date",
          "name": "date",
          "type": "tuple"
        },
        {
          "components": [
            {
              "internalType": "uint256",
              "name": "hour",
              "type": "uint256"
            },
            {
              "internalType": "uint256",
              "name": "minute",
              "type": "uint256"
            }
          ],
          "internalType": "struct History.Time",
          "name": "time",
          "type": "tuple"
        },
        {
          "internalType": "string",
          "name": "location",
          "type": "string"
        }
      ],
      "stateMutability": "view",
      "type": "function",
      "constant": true
    },
    {
      "inputs": [],
      "name": "bloodDonationsCount",
      "outputs": [
        {
          "internalType": "uint256",
          "name": "",
          "type": "uint256"
        }
      ],
      "stateMutability": "view",
      "type": "function",
      "constant": true
    },
    {
      "inputs": [],
      "name": "livesSaved",
      "outputs": [
        {
          "internalType": "uint256",
          "name": "",
          "type": "uint256"
        }
      ],
      "stateMutability": "view",
      "type": "function",
      "constant": true
    },
    {
      "inputs": [],
      "name": "nextAvailability",
      "outputs": [
        {
          "internalType": "uint256",
          "name": "day",
          "type": "uint256"
        },
        {
          "internalType": "uint256",
          "name": "month",
          "type": "uint256"
        },
        {
          "internalType": "uint256",
          "name": "year",
          "type": "uint256"
        }
      ],
      "stateMutability": "view",
      "type": "function",
      "constant": true
    },
    {
      "inputs": [
        {
          "internalType": "uint256",
          "name": "year",
          "type": "uint256"
        }
      ],
      "name": "getBloodDonationsByYear",
      "outputs": [
        {
          "components": [
            {
              "internalType": "uint256",
              "name": "id",
              "type": "uint256"
            },
            {
              "components": [
                {
                  "internalType": "uint256",
                  "name": "day",
                  "type": "uint256"
                },
                {
                  "internalType": "uint256",
                  "name": "month",
                  "type": "uint256"
                },
                {
                  "internalType": "uint256",
                  "name": "year",
                  "type": "uint256"
                }
              ],
              "internalType": "struct History.Date",
              "name": "date",
              "type": "tuple"
            },
            {
              "components": [
                {
                  "internalType": "uint256",
                  "name": "hour",
                  "type": "uint256"
                },
                {
                  "internalType": "uint256",
                  "name": "minute",
                  "type": "uint256"
                }
              ],
              "internalType": "struct History.Time",
              "name": "time",
              "type": "tuple"
            },
            {
              "internalType": "string",
              "name": "location",
              "type": "string"
            }
          ],
          "internalType": "struct History.BloodDonation[]",
          "name": "bloodDonationsByYear",
          "type": "tuple[]"
        }
      ],
      "stateMutability": "view",
      "type": "function",
      "constant": true
    },
    {
      "inputs": [
        {
          "internalType": "string",
          "name": "location",
          "type": "string"
        }
      ],
      "name": "getBloodDonationsByLocation",
      "outputs": [
        {
          "components": [
            {
              "internalType": "uint256",
              "name": "id",
              "type": "uint256"
            },
            {
              "components": [
                {
                  "internalType": "uint256",
                  "name": "day",
                  "type": "uint256"
                },
                {
                  "internalType": "uint256",
                  "name": "month",
                  "type": "uint256"
                },
                {
                  "internalType": "uint256",
                  "name": "year",
                  "type": "uint256"
                }
              ],
              "internalType": "struct History.Date",
              "name": "date",
              "type": "tuple"
            },
            {
              "components": [
                {
                  "internalType": "uint256",
                  "name": "hour",
                  "type": "uint256"
                },
                {
                  "internalType": "uint256",
                  "name": "minute",
                  "type": "uint256"
                }
              ],
              "internalType": "struct History.Time",
              "name": "time",
              "type": "tuple"
            },
            {
              "internalType": "string",
              "name": "location",
              "type": "string"
            }
          ],
          "internalType": "struct History.BloodDonation[]",
          "name": "bloodDonationsByLocation",
          "type": "tuple[]"
        }
      ],
      "stateMutability": "view",
      "type": "function",
      "constant": true
    },
    {
      "inputs": [
        {
          "internalType": "uint256",
          "name": "day",
          "type": "uint256"
        },
        {
          "internalType": "uint256",
          "name": "month",
          "type": "uint256"
        },
        {
          "internalType": "uint256",
          "name": "year",
          "type": "uint256"
        },
        {
          "internalType": "uint256",
          "name": "hour",
          "type": "uint256"
        },
        {
          "internalType": "uint256",
          "name": "minute",
          "type": "uint256"
        },
        {
          "internalType": "string",
          "name": "location",
          "type": "string"
        }
      ],
      "name": "addBloodDonation",
      "outputs": [],
      "stateMutability": "nonpayable",
      "type": "function"
    },
    {
      "inputs": [
        {
          "components": [
            {
              "internalType": "uint256",
              "name": "day",
              "type": "uint256"
            },
            {
              "internalType": "uint256",
              "name": "month",
              "type": "uint256"
            },
            {
              "internalType": "uint256",
              "name": "year",
              "type": "uint256"
            }
          ],
          "internalType": "struct History.Date",
          "name": "date",
          "type": "tuple"
        }
      ],
      "name": "changeNextAvailability",
      "outputs": [],
      "stateMutability": "nonpayable",
      "type": "function"
    },
    {
      "inputs": [
        {
          "components": [
            {
              "internalType": "uint256",
              "name": "day",
              "type": "uint256"
            },
            {
              "internalType": "uint256",
              "name": "month",
              "type": "uint256"
            },
            {
              "internalType": "uint256",
              "name": "year",
              "type": "uint256"
            }
          ],
          "internalType": "struct History.Date",
          "name": "date1",
          "type": "tuple"
        },
        {
          "components": [
            {
              "internalType": "uint256",
              "name": "day",
              "type": "uint256"
            },
            {
              "internalType": "uint256",
              "name": "month",
              "type": "uint256"
            },
            {
              "internalType": "uint256",
              "name": "year",
              "type": "uint256"
            }
          ],
          "internalType": "struct History.Date",
          "name": "date2",
          "type": "tuple"
        }
      ],
      "name": "dateisAfter",
      "outputs": [
        {
          "internalType": "bool",
          "name": "isAfter",
          "type": "bool"
        }
      ],
      "stateMutability": "pure",
      "type": "function",
      "constant": true
    },
    {
      "inputs": [],
      "name": "incrementLivesSaved",
      "outputs": [],
      "stateMutability": "nonpayable",
      "type": "function"
    },
    {
      "inputs": [
        {
          "internalType": "string",
          "name": "s1",
          "type": "string"
        },
        {
          "internalType": "string",
          "name": "s2",
          "type": "string"
        }
      ],
      "name": "stringEquals",
      "outputs": [
        {
          "internalType": "bool",
          "name": "",
          "type": "bool"
        }
      ],
      "stateMutability": "pure",
      "type": "function",
      "constant": true
    }
  ],
  "bytecode": "0x60806040526000600155600060055534801561001a57600080fd5b50604051806060016040528060018152602001600181526020016107b881525060026000820151816000015560208201518160010155604082015181600201559050506117378061006c6000396000f3fe608060405234801561001057600080fd5b50600436106100a95760003560e01c80638f27ba34116100715780638f27ba3414610142578063af72335314610175578063e4cc8b3514610193578063eb56fa5c146101af578063f8935eb8146101df578063febc9dec1461020f576100a9565b80630873c6c5146100ae5780631ed003a8146100b857806323c8c3c6146100d457806355dc5409146100f45780638a4b6beb14610124575b600080fd5b6100b661023f565b005b6100d260048036038101906100cd9190610e45565b610259565b005b6100dc61036d565b6040516100eb93929190610e81565b60405180910390f35b61010e60048036038101906101099190610eb8565b610385565b60405161011b9190611112565b60405180910390f35b61012c61061c565b6040516101399190611134565b60405180910390f35b61015c60048036038101906101579190610eb8565b610622565b60405161016c949392919061120a565b60405180910390f35b61017d610720565b60405161018a9190611134565b60405180910390f35b6101ad60048036038101906101a89190611310565b610726565b005b6101c960048036038101906101c491906113b9565b61082c565b6040516101d69190611112565b60405180910390f35b6101f960048036038101906101f49190611402565b610b4f565b604051610206919061145d565b60405180910390f35b61022960048036038101906102249190611478565b610b88565b604051610236919061145d565b60405180910390f35b600560008154809291906102529061151f565b9190505550565b61028d8160026040518060600160405290816000820154815260200160018201548152602001600282015481525050610b4f565b1561036a5760088160200151111561031257604051806060016040528082600001518152602001600c600484602001516102c79190611568565b6102d191906115ed565b8152602001600183604001516102e79190611568565b8152506002600082015181600001556020820151816001015560408201518160020155905050610369565b604051806060016040528082600001518152602001600483602001516103389190611568565b8152602001826040015181525060026000820151816000015560208201518160010155604082015181600201559050505b5b50565b60028060000154908060010154908060020154905083565b6060600060015467ffffffffffffffff8111156103a5576103a4610d30565b5b6040519080825280602002602001820160405280156103de57816020015b6103cb610bf4565b8152602001906001900390816103c35790505b509050600080600090505b600154811015610566578460008083815260200190815260200160002060010160020154141561055357600080828152602001908152602001600020604051806080016040529081600082015481526020016001820160405180606001604052908160008201548152602001600182015481526020016002820154815250508152602001600482016040518060400160405290816000820154815260200160018201548152505081526020016006820180546104a49061164d565b80601f01602080910402602001604051908101604052809291908181526020018280546104d09061164d565b801561051d5780601f106104f25761010080835404028352916020019161051d565b820191906000526020600020905b81548152906001019060200180831161050057829003601f168201915b5050505050815250508383815181106105395761053861167f565b5b6020026020010181905250818061054f9061151f565b9250505b808061055e9061151f565b9150506103e9565b508067ffffffffffffffff81111561058157610580610d30565b5b6040519080825280602002602001820160405280156105ba57816020015b6105a7610bf4565b81526020019060019003908161059f5790505b50925060005b81811015610614578281815181106105db576105da61167f565b5b60200260200101518482815181106105f6576105f561167f565b5b6020026020010181905250808061060c9061151f565b9150506105c0565b505050919050565b60055481565b60006020528060005260406000206000915090508060000154908060010160405180606001604052908160008201548152602001600182015481526020016002820154815250509080600401604051806040016040529081600082015481526020016001820154815250509080600601805461069d9061164d565b80601f01602080910402602001604051908101604052809291908181526020018280546106c99061164d565b80156107165780601f106106eb57610100808354040283529160200191610716565b820191906000526020600020905b8154815290600101906020018083116106f957829003601f168201915b5050505050905084565b60015481565b600160008154809291906107399061151f565b919050555060006040518060600160405280888152602001878152602001868152509050604051806080016040528060015481526020018281526020016040518060400160405280878152602001868152508152602001838152506000806001548152602001908152602001600020600082015181600001556020820151816001016000820151816000015560208201518160010155604082015181600201555050604082015181600401600082015181600001556020820151816001015550506060820151816006019080519060200190610816929190610c28565b5090505061082381610259565b50505050505050565b6060600060015467ffffffffffffffff81111561084c5761084b610d30565b5b60405190808252806020026020018201604052801561088557816020015b610872610bf4565b81526020019060019003908161086a5790505b509050600080600090505b600154811015610a995761094160008083815260200190815260200160002060060180546108bd9061164d565b80601f01602080910402602001604051908101604052809291908181526020018280546108e99061164d565b80156109365780601f1061090b57610100808354040283529160200191610936565b820191906000526020600020905b81548152906001019060200180831161091957829003601f168201915b505050505086610b88565b15610a8657600080828152602001908152602001600020604051806080016040529081600082015481526020016001820160405180606001604052908160008201548152602001600182015481526020016002820154815250508152602001600482016040518060400160405290816000820154815260200160018201548152505081526020016006820180546109d79061164d565b80601f0160208091040260200160405190810160405280929190818152602001828054610a039061164d565b8015610a505780601f10610a2557610100808354040283529160200191610a50565b820191906000526020600020905b815481529060010190602001808311610a3357829003601f168201915b505050505081525050838381518110610a6c57610a6b61167f565b5b60200260200101819052508180610a829061151f565b9250505b8080610a919061151f565b915050610890565b508067ffffffffffffffff811115610ab457610ab3610d30565b5b604051908082528060200260200182016040528015610aed57816020015b610ada610bf4565b815260200190600190039081610ad25790505b50925060005b81811015610b4757828181518110610b0e57610b0d61167f565b5b6020026020010151848281518110610b2957610b2861167f565b5b60200260200101819052508080610b3f9061151f565b915050610af3565b505050919050565b6000816040015183604001511180610b6e575081602001518360200151115b80610b80575081600001518360000151115b905092915050565b60008151835114610b9c5760009050610bee565b81604051602001610bad91906116ea565b6040516020818303038152906040528051906020012083604051602001610bd491906116ea565b604051602081830303815290604052805190602001201490505b92915050565b604051806080016040528060008152602001610c0e610cae565b8152602001610c1b610ccf565b8152602001606081525090565b828054610c349061164d565b90600052602060002090601f016020900481019282610c565760008555610c9d565b82601f10610c6f57805160ff1916838001178555610c9d565b82800160010185558215610c9d579182015b82811115610c9c578251825591602001919060010190610c81565b5b509050610caa9190610ce9565b5090565b60405180606001604052806000815260200160008152602001600081525090565b604051806040016040528060008152602001600081525090565b5b80821115610d02576000816000905550600101610cea565b5090565b6000604051905090565b600080fd5b600080fd5b600080fd5b6000601f19601f8301169050919050565b7f4e487b7100000000000000000000000000000000000000000000000000000000600052604160045260246000fd5b610d6882610d1f565b810181811067ffffffffffffffff82111715610d8757610d86610d30565b5b80604052505050565b6000610d9a610d06565b9050610da68282610d5f565b919050565b6000819050919050565b610dbe81610dab565b8114610dc957600080fd5b50565b600081359050610ddb81610db5565b92915050565b600060608284031215610df757610df6610d1a565b5b610e016060610d90565b90506000610e1184828501610dcc565b6000830152506020610e2584828501610dcc565b6020830152506040610e3984828501610dcc565b60408301525092915050565b600060608284031215610e5b57610e5a610d10565b5b6000610e6984828501610de1565b91505092915050565b610e7b81610dab565b82525050565b6000606082019050610e966000830186610e72565b610ea36020830185610e72565b610eb06040830184610e72565b949350505050565b600060208284031215610ece57610ecd610d10565b5b6000610edc84828501610dcc565b91505092915050565b600081519050919050565b600082825260208201905092915050565b6000819050602082019050919050565b610f1a81610dab565b82525050565b606082016000820151610f366000850182610f11565b506020820151610f496020850182610f11565b506040820151610f5c6040850182610f11565b50505050565b604082016000820151610f786000850182610f11565b506020820151610f8b6020850182610f11565b50505050565b600081519050919050565b600082825260208201905092915050565b60005b83811015610fcb578082015181840152602081019050610fb0565b83811115610fda576000848401525b50505050565b6000610feb82610f91565b610ff58185610f9c565b9350611005818560208601610fad565b61100e81610d1f565b840191505092915050565b600060e0830160008301516110316000860182610f11565b5060208301516110446020860182610f20565b5060408301516110576080860182610f62565b50606083015184820360c086015261106f8282610fe0565b9150508091505092915050565b60006110888383611019565b905092915050565b6000602082019050919050565b60006110a882610ee5565b6110b28185610ef0565b9350836020820285016110c485610f01565b8060005b8581101561110057848403895281516110e1858261107c565b94506110ec83611090565b925060208a019950506001810190506110c8565b50829750879550505050505092915050565b6000602082019050818103600083015261112c818461109d565b905092915050565b60006020820190506111496000830184610e72565b92915050565b6060820160008201516111656000850182610f11565b5060208201516111786020850182610f11565b50604082015161118b6040850182610f11565b50505050565b6040820160008201516111a76000850182610f11565b5060208201516111ba6020850182610f11565b50505050565b600082825260208201905092915050565b60006111dc82610f91565b6111e681856111c0565b93506111f6818560208601610fad565b6111ff81610d1f565b840191505092915050565b600060e08201905061121f6000830187610e72565b61122c602083018661114f565b6112396080830185611191565b81810360c083015261124b81846111d1565b905095945050505050565b600080fd5b600080fd5b600067ffffffffffffffff82111561127b5761127a610d30565b5b61128482610d1f565b9050602081019050919050565b82818337600083830152505050565b60006112b36112ae84611260565b610d90565b9050828152602081018484840111156112cf576112ce61125b565b5b6112da848285611291565b509392505050565b600082601f8301126112f7576112f6611256565b5b81356113078482602086016112a0565b91505092915050565b60008060008060008060c0878903121561132d5761132c610d10565b5b600061133b89828a01610dcc565b965050602061134c89828a01610dcc565b955050604061135d89828a01610dcc565b945050606061136e89828a01610dcc565b935050608061137f89828a01610dcc565b92505060a087013567ffffffffffffffff8111156113a05761139f610d15565b5b6113ac89828a016112e2565b9150509295509295509295565b6000602082840312156113cf576113ce610d10565b5b600082013567ffffffffffffffff8111156113ed576113ec610d15565b5b6113f9848285016112e2565b91505092915050565b60008060c0838503121561141957611418610d10565b5b600061142785828601610de1565b925050606061143885828601610de1565b9150509250929050565b60008115159050919050565b61145781611442565b82525050565b6000602082019050611472600083018461144e565b92915050565b6000806040838503121561148f5761148e610d10565b5b600083013567ffffffffffffffff8111156114ad576114ac610d15565b5b6114b9858286016112e2565b925050602083013567ffffffffffffffff8111156114da576114d9610d15565b5b6114e6858286016112e2565b9150509250929050565b7f4e487b7100000000000000000000000000000000000000000000000000000000600052601160045260246000fd5b600061152a82610dab565b91507fffffffffffffffffffffffffffffffffffffffffffffffffffffffffffffffff82141561155d5761155c6114f0565b5b600182019050919050565b600061157382610dab565b915061157e83610dab565b9250827fffffffffffffffffffffffffffffffffffffffffffffffffffffffffffffffff038211156115b3576115b26114f0565b5b828201905092915050565b7f4e487b7100000000000000000000000000000000000000000000000000000000600052601260045260246000fd5b60006115f882610dab565b915061160383610dab565b925082611613576116126115be565b5b828206905092915050565b7f4e487b7100000000000000000000000000000000000000000000000000000000600052602260045260246000fd5b6000600282049050600182168061166557607f821691505b602082108114156116795761167861161e565b5b50919050565b7f4e487b7100000000000000000000000000000000000000000000000000000000600052603260045260246000fd5b600081905092915050565b60006116c482610f91565b6116ce81856116ae565b93506116de818560208601610fad565b80840191505092915050565b60006116f682846116b9565b91508190509291505056fea2646970667358221220c2cd7f585f849d6bfb510a53ecc6172ab2a573458d761d88495bccf65618e80c64736f6c634300080b0033",
  "immutableReferences": {},
  "source": "pragma solidity ^0.8.11;\n\ncontract History {\n\n    struct BloodDonation {\n        uint id;\n        Date date;\n        Time time;\n        string location;\n    }\n\n    struct Date {\n        uint day;\n        uint month;\n        uint year;\n    }\n\n    struct Time {\n        uint hour;\n        uint minute;\n    }\n\n    mapping(uint => BloodDonation) public bloodDonations;\n    uint public bloodDonationsCount = 0;\n\n    Date public nextAvailability;\n\n    uint public livesSaved = 0;\n\n    constructor() {\n        nextAvailability = Date(1, 1, 1976);\n    }\n\n    function getBloodDonationsByYear(uint year)public view\n    returns(BloodDonation[] memory bloodDonationsByYear) {\n        BloodDonation[] memory bloodDonationsTmp = new BloodDonation[](bloodDonationsCount);\n        uint count;\n        for(uint i = 0; i < bloodDonationsCount; i++) {\n            if (bloodDonations[i].date.year == year) {\n                bloodDonationsTmp[count] = bloodDonations[i];\n                count++;\n            }\n        }\n        bloodDonationsByYear = new BloodDonation[](count);\n        for (uint i = 0; i < count; i++) {\n            bloodDonationsByYear[i] = bloodDonationsTmp[i];\n        }\n    }\n\n    function getBloodDonationsByLocation(string memory location)public view\n    returns(BloodDonation[] memory bloodDonationsByLocation) {\n        BloodDonation[] memory bloodDonationsTmp = new BloodDonation[](bloodDonationsCount);\n        uint count;\n        for(uint i = 0; i < bloodDonationsCount; i++) {\n            if (stringEquals(bloodDonations[i].location, location)) {\n                bloodDonationsTmp[count] = bloodDonations[i];\n                count++;\n            }\n        }\n        bloodDonationsByLocation = new BloodDonation[](count);\n        for (uint i = 0; i < count; i++) {\n            bloodDonationsByLocation[i] = bloodDonationsTmp[i];\n        }\n    }\n\n    function addBloodDonation(\n        uint day,\n        uint month,\n        uint year,\n        uint hour,\n        uint minute,\n        string memory location) public\n    {\n        bloodDonationsCount++;\n        Date memory date = Date(day, month, year); \n        bloodDonations[bloodDonationsCount] = BloodDonation(\n            bloodDonationsCount,\n            date,\n            Time(hour, minute),\n            location);\n        changeNextAvailability(date);\n    }\n\n    function changeNextAvailability(Date memory date) public {\n        if (dateisAfter(date, nextAvailability)) {\n            if (date.month > 8) {\n                nextAvailability = Date(date.day, (date.month + 4) % 12, date.year + 1);\n            } else {\n                nextAvailability = Date(date.day, date.month + 4, date.year);\n            }\n        }\n    }\n\n    function dateisAfter(Date memory date1, Date memory date2) public pure\n    returns(bool isAfter) {\n        return date1.year > date2.year || date1.month > date2.month || date1.day > date2.day;\n    }\n\n    function incrementLivesSaved() public{\n        livesSaved++;\n    }\n\n    function stringEquals(string memory s1, string memory s2) public pure\n    returns(bool) {\n        if(bytes(s1).length != bytes(s2).length) {\n            return false;\n        } else {\n            return keccak256(abi.encodePacked(s1)) == keccak256(abi.encodePacked(s2));\n    }\n    }\n\n}\n",
  "sourcePath": "C:\\Users\\Eduxtek\\Desktop\\IST-LEIC\\Masters\\CCU\\Proj\\contracts\\History.sol",
  "compiler": {
    "name": "solc",
    "version": "0.8.11+commit.d7f03943.Emscripten.clang"
  },
  "schemaVersion": "3.4.4",
  "updatedAt": "2022-01-27T17:55:45.858Z",
  "networkType": "ethereum",
  "devdoc": {
    "kind": "dev",
    "methods": {},
    "version": 1
  },
  "userdoc": {
    "kind": "user",
    "methods": {},
    "version": 1
  }
}